:100000000C9468000C9490000C9490000C94900058
:100010000C9490000C9490000C9490000C94900020
:100020000C9490000C9490000C9490000C94900010
:100030000C9490000C9490000C9490000C94900000
:100040000C94320A0C9490000C94080D0C943A0D08
:100050000C9490000C9490000C9490000C949000E0
:100060000C94DA030C9490001112131415160A0B59
:100070000C0D0E0F00010203040500000008000231
:10008000010000030407000000000000000001025E
:100090000408102040800102040810200102040816
:1000A00010200404040404040404020202020202F4
:1000B00003030303030300000000250028002B00B6
:1000C00000000000240027002A006A0238036A0D9D
:1000D00011241FBECFEFD8E0DEBFCDBF11E0A0E0FE
:1000E000B1E0E2E0FEE102C005900D92A43DB1074F
:1000F000D9F723E0A4EDB1E001C01D92A239B20707
:10010000E1F710E0C0EDD0E004C02297FE010E94AC
:10011000F20ECA3CD107C9F70E94AE0D0C94FF0E37
:100120000C940000EF92FF920F931F93CF9340ED3A
:1001300057E060E070E085EB92E00E94990920E8CA
:1001400035E240E050E065EF72E085EB92E00E941E
:10015000AC0985EB92E00E9496096AE271E0809119
:10016000E6029091E7020E94FB0D6AE070E080E0F9
:1001700090E00E94AB0A41E060E085EB92E00E94D3
:10018000170A86ED91E00E94600686ED91E00E94DC
:100190006605CEE161E08C2F0E94540BCF5FC63222
:1001A000C9F726E040E855E260E070E085EF92E0B4
:1001B0000E94A60C82EE91E00E94FD0862E070E0D1
:1001C00080E090E00E94AB0A69E082EE91E00E943C
:1001D0007D0760E070E082EE91E00E94BB0862E083
:1001E00082EE91E00E94A20884EFE82E93EFF92EB0
:1001F00002EF11EF20EF30E040E050E061E082EEEE
:1002000091E00E94CF0782EE91E0CF911F910F9174
:10021000FF90EF900C945C08CF92DF92EF92FF92E8
:100220000F931F93CF93DF9328E0C22E21E0D22EAD
:1002300030E0E32E31E0F32EC0E0D0E08C01000F7F
:10024000111F005F1E4FF6018081F2E0CF0ED11C1E
:10025000F801608171810C2E02C0759567950A9432
:10026000E2F761700E948D0BF7018081F2E0EF0EE2
:10027000F11CF801608171810C2E02C075956795A3
:100280000A94E2F761700E948D0B2196C430D1056B
:10029000D1F6DF91CF911F910F91FF90EF90DF90FA
:1002A000CF900895AF92BF92CF92DF92EF92FF92DC
:1002B0000F931F93CF93DF936B018A01E12CF12CF5
:1002C0005C01AA0CBB1C9501205F3E4F5901C7E0A1
:1002D000D0E0C81BD90BCC0FDD1FC05FDE4FF6018D
:1002E0008081F2E0CF0ED11CF501608171810E2C6E
:1002F00002C0759567950A94E2F761700E948D0BB4
:10030000F80180810E5F1F4F688179810E2C02C039
:10031000759567950A94E2F761700E948D0BFFEF67
:10032000EF1AFF0A24E0E216F104C9F6DF91CF913B
:100330001F910F91FF90EF90DF90CF90BF90AF9003
:100340000895EF92FF920F931F93CF93DF937C0159
:100350008B01C0E0D0E0E016F10621F4CE010E944E
:100360000C010AC00230110539F440E051E068E0A8
:1003700071E0CE010E9452018091200190912101F3
:100380000E94E50A2196C830D10529F7DF91CF9167
:100390001F910F91FF90EF900895EF92FF920F93AE
:1003A0001F93CF93DF937C018B01C7E0D0E0E01671
:1003B000F10621F4CE010E940C010AC002301105A1
:1003C00039F440E051E068E071E0CE010E94520152
:1003D00080912001909121010E94E50A219738F730
:1003E000DF91CF911F910F91FF90EF900895CF93E0
:1003F000DF9382EE91E00E94BF078823D1F342E0B1
:1004000064ED71E082EE91E00E94C3076091D40137
:100410007091D5014AE050E085EF92E00E94A10E74
:100420008091D4019091D5018330910509F44AC09F
:100430004CF48130910591F0029709F045C0C2E07B
:10044000D0E01CC08530910531F0CCF10697E1F584
:10045000C2E0D0E005C0C1E0D0E010C0C1E0D0E013
:10046000BE0181E090E00E94A10140E060E086EDE5
:1004700091E00E94C7056CE371E011C082E090E05A
:10048000029729F5BE0182E090E00E94CD0140E094
:1004900060E086ED91E00E94C70561E471E086EDC1
:1004A00091E00E94FB0D64E670E080E090E00E9425
:1004B000AB0A86ED91E0DF91CF910C94B905C0E0D5
:1004C000D0E0CECFC1E0D0E080E090E0D9CFDF91A6
:1004D000CF91089545E369E082EE91E00E947207B2
:1004E00022E040E16FE386ED91E00C943D058091C0
:1004F000240290E020912502821B91090895209109
:10050000250280912402281750F4E22FF0E0EA5DE2
:10051000FD4F808190E02F5F2093250208958FEF9B
:100520009FEF0895E091250280912402E81730F4AE
:10053000F0E0EA5DFD4F808190E008958FEF9FEF3E
:1005400008950895CF92DF92EF92FF920F931F9339
:10055000CF93DF937C01CB018A01209100022223FB
:1005600089F0EB016B01C40ED51ECC15DD0569F0D9
:100570006991D701ED91FC910190F081E02DC701C7
:100580000995F3CF642F0E94B103C801DF91CF9189
:100590001F910F91FF90EF90DF90CF900895CF9330
:1005A000DF931F92CDB7DEB769832091000222232B
:1005B000D1F020910102203240F021E030E0FC0136
:1005C0003383228380E090E015C080910202E82FFF
:1005D000F0E0ED5FFD4F998190838F5F8093020281
:1005E0008093010205C061E0CE0101960E94B10333
:1005F00081E090E00F90DF91CF910895FC0113828C
:10060000128248EE53E060E070E0448355836683D5
:1006100077838AE491E09183808308951092250284
:100620001092240210920202109201020C943C03D8
:1006300081E08093000260932302109202021092E4
:10064000010208950F93062F21E04091010263E01B
:1006500072E0809123020E945A03109202021092CB
:100660000102109200020F91089561E00C942203A0
:1006700084EF91E00C94FE021092B30281E080932B
:10068000B1021092B00261E082E10E948D0B61E044
:1006900083E10E948D0BE9EBF0E080818E7F808307
:1006A00080818D7F808388E48093B80085E4809387
:1006B000BC0008950F93413208F04AC09091B302F4
:1006C0009111FCCF92E09093B3020093B1029FEF9F
:1006D0009093460210928B0240938A02FB016CE8D1
:1006E00072E0DB019A2F961B941718F491919D9359
:1006F000F9CF1092B2029091B202880F892B8093A9
:10070000B2028091B002813061F41092B002809107
:10071000B2028093BB008091BC0083FDF8CF85ECD2
:1007200001C085EE8093BC00222321F08091B302AA
:100730008230E1F3809146028F3F61F08091460262
:10074000803251F080914602803341F483E007C04B
:1007500081E005C080E003C082E001C084E00F9129
:100760000895613298F42091B302243089F46093A3
:100770006802FC018AE692E0DC012A2F281B26177A
:1007800018F421912D93F9CF80E0089581E0089528
:1007900082E0089585ED8093BC008091BC0084FDCB
:1007A000FCCF1092B302089585EC8093BC001092A8
:1007B000B30208951F920F920FB60F9211242F9338
:1007C0003F934F935F936F937F938F939F93AF93D9
:1007D000BF93EF93FF938091B900887F803609F42F
:1007E0009EC078F5883209F45DC090F4803109F438
:1007F00056C038F4882309F4F5C0883009F44FC096
:10080000F5C0883109F44EC0803209F45FC0EEC0F3
:10081000803409F46AC058F4803309F457C088332F
:1008200009F0E4C0809346020E94D403DFC0803503
:1008300009F44FC0883509F45DC0883409F0D6C08A
:10084000D3C0883909F4C4C0A8F4883709F467C054
:1008500038F4883609F463C0803709F460C0C6C034
:10086000883809F4B5C0803909F45FC0803809F0D0
:10087000BDC05BC0803B09F483C038F4803A09F402
:1008800066C0883A09F47CC0B1C0803C09F4A4C0B9
:10089000883C09F4A1C0883B09F487C0A7C08091B7
:1008A000B20210C090918B0280918A02981770F565
:1008B000E0918B0281E08E0F80938B02F0E0E45791
:1008C000FD4F80818093BB0085EC83C080934602FE
:1008D0008BC0E0918B0281E08E0F80938B02809120
:1008E000BB00F0E0E457FD4F808390918B02809134
:1008F0008A026BC0E0918B0281E08E0F80938B02A5
:100900008091BB00F0E0E457FD4F80838091B102FD
:1009100081116AC081E08093B00284EA5EC083E006
:100920008093B30210924702CFCF8091470280326A
:1009300008F04EC0E091470281E08E0F809347029D
:100940008091BB00F0E0E85BFD4F8083BDCF0E944B
:10095000D40380914702803230F4E0914702F0E006
:10096000E85BFD4F10826091470270E0E091AC02BD
:10097000F091AD0288E492E009951092470236C0EA
:1009800084E08093B3021092690210926802E091B1
:10099000AE02F091AF02099580916802811105C005
:1009A00081E08093680210926A02E091690281E01E
:1009B0008E0F80936902F0E0E659FD4F80818093AD
:1009C000BB009091690280916802981708F47CCF6F
:1009D00085E88093BC000AC085EC8093BC0010922F
:1009E000B30204C0109246020E94CA03FF91EF9125
:1009F000BF91AF919F918F917F916F915F914F9137
:100A00003F912F910F900FBE0F901F901895CF938D
:100A1000CFB7F8948091B402811127C0ECEAF0E0DE
:100A20008491E8E9F0E09491E82FF0E0EE0FFF1FE9
:100A3000E054FF4FA591B4918C91892321F461E09A
:100A40008AE00E948D0B61E08AE00E94540B8CB515
:100A500080618CBD8CB580648CBD61E08DE00E94AE
:100A6000540B61E08BE00E94540B8091B4028F5FC5
:100A70008093B402CFBFCF910895FC0113821282FC
:100A80008AE591E09183808364834187228713867E
:100A900008951F93CF93DF93EC01162F6C8184EFA1
:100AA00091E00E941803E091F401F091F5016B854B
:100AB000612B0190F081E02D84EF91E0099584EFA6
:100AC00091E0DF91CF911F910C94350328E0FC0158
:100AD000238760E00C9449051F93CF93DF93EC01CB
:100AE000162F64600E94490581E090E00E94E50AAB
:100AF000612F6B7FCE010E94490582E390E0DF9178
:100B0000CF911F910C94E50A1F93CF93DF93EC01D3
:100B1000162F0E944905612FCE01DF91CF911F91C1
:100B20000C946C05EF92FF921F93CF93DF931F926B
:100B3000CDB7DEB77C01162F607F642B49830E94FE
:100B4000840580E1189FB00111244981642BC701FD
:100B50000F90DF91CF911F91FF90EF900C9484053F
:100B600041E00E94920581E090E0089540E00C94FD
:100B7000920561E00E94B60580ED97E00C94E50ACD
:100B800062E00E94B60580ED97E00C94E50ACF93F1
:100B9000DF93CDB7DEB728970FB6F894DEBF0FBE50
:100BA000CDBF28E0E2E2F1E0DE01119601900D9266
:100BB0002A95E1F7FC012085241710F44FEF420F2E
:100BC000FE013196E40FF11DE40FF11D2081260F87
:100BD0002068622F28960FB6F894DEBF0FBECDBFF7
:100BE000DF91CF910C94B605FC016681262F24601D
:100BF00026836C600C94B605CF93DF93EC014230F2
:100C000018F08D8188608D834887222329F0413038
:100C100019F48D8184608D8362E370E080E090E060
:100C20000E94AB0A6B85CE010E94490568EE73E015
:100C300080E090E00E94AB0A60E3CE010E94840550
:100C400084E991E10E94E50A60E3CE010E948405F7
:100C500084E991E10E94E50A60E3CE010E948405E7
:100C600086E990E00E94E50A60E2CE010E948405D8
:100C70006D816062CE010E94B60584E08E83CE0154
:100C80000E94F405CE010E94B90582E08F8366E0E0
:100C9000CE010E94B605CE01DF91CF910C94C00524
:100CA000CF93DF93EC0184EF91E00E940E031D824D
:100CB00020E04A856985CE01DF91CF910C94FC0537
:100CC0000C9450068EBD00000DB407FEFDCF8EB50E
:100CD00008952CB52F7D2CBD2CB5237F2CBD2CB5B4
:100CE0002C7F2CBD2DB521602DBDFC0181810E9482
:100CF0008D0B85E090E00C94E50AFC0180819181E8
:100D000089130C948D0B089560E00C94690661E0E2
:100D10000C946906EF92FF921F93CF93DF931F927B
:100D2000CDB7DEB77C0169830E9484066981862F76
:100D30008F710E9462068FEF0E946206182FC70112
:100D40000E948706812F0F90DF91CF911F91FF9016
:100D5000EF900895CF92DF92EF92FF920F931F933F
:100D6000CF93DF9300D01F92CDB7DEB78C01F22E68
:100D70004A835B8369830E9484066981862F8F7111
:100D800080620E946206E82E4A81C42E5B81D52EC5
:100D9000F40EFC1431F0F60181916F010E9462069D
:100DA000F8CFC8010E9487068E2D0F900F900F90EC
:100DB000DF91CF911F910F91FF90EF90DF90CF9037
:100DC0000895EF92FF921F93CF93DF9300D0CDB79A
:100DD000DEB77C014A8369830E9484066981862F7D
:100DE0008F7180620E946206182F4A81842F0E94B0
:100DF0006206C7010E948706812F0F900F90DF9136
:100E0000CF911F91FF90EF900895AF92BF92DF9224
:100E1000EF92FF920F931F93CF93DF9300D0CDB744
:100E2000DEB78C01FC01E580F42EE41608F4FE2CFC
:100E3000F8018681811102C0EF1801C0E12CC801C0
:100E400069837A830E94840681E60E946206D82E16
:100E50006981A62E7A81B72EF60EFA1439F08FEF3B
:100E60000E946206F50181935F01F7CFEE2029F021
:100E70008FEF0E946206EA94F9CFC8010E948706AC
:100E80008D2D0F900F90DF91CF911F910F91FF90BB
:100E9000EF90DF90BF90AF900895EF92FF921F9375
:100EA000CF93DF931F92CDB7DEB77C0169830E9499
:100EB00084066981862F0E946206182FC7010E944E
:100EC0008706812F0F90DF91CF911F91FF90EF90B8
:100ED000089562EE0C944D0761EE0C944D076FEF90
:100EE0000C944D07FC0160834183148280E285836A
:100EF000168285E0848717820895462F6E3708F0A2
:100F00004DE765E00C94E106CF93DF93EC0160E0E0
:100F10000E948A0681FD12C060E0CE010E948A060E
:100F2000482F426060E0CE010E94E10665E070E07B
:100F300080E090E0DF91CF910C94AB0ADF91CF91EC
:100F400008950F931F93CF93DF938C01EB0167E11B
:100F50000E948A0680FD0BC0209759F0C8010E94AC
:100F60006F0790E0959587958770888302C080E031
:100F700001C081E0DF91CF911F910F91089560E052
:100F800070E00C94A107CF93DF93EC010E9405075A
:100F900040E767E0CE01DF91CF910C94E106BF926C
:100FA000CF92DF92EF92FF920F931F93CF93DF9335
:100FB000CDB7DEB728970FB6F894DEBF0FBECDBF12
:100FC0006C01B62EE982FA820B831C832D833E834B
:100FD0004F83588761110AC0FC01448550E0BE016F
:100FE0006F5F7F4F07960E94F60E07C0F6E0F61778
:100FF00008F436C081E0681308C0EB2DF0E0E25938
:10100000FF4F6491F601248506C0E62FF0E0E25917
:10101000FF4F649121E0AE014F5F5F4FC6010E9418
:10102000AA060B2D10E0F801E859FF4F6491F60174
:101030004581C6010E94E10662E0C6010E948A065F
:10104000F801EC58FF4F049121E030E001C0220F7D
:101050000A95EAF7822B482F62E0C6010E94E1065A
:1010600028960FB6F894DEBF0FBECDBFDF91CF91AB
:101070001F910F91FF90EF90DF90CF90BF90089558
:101080001F93CF93DF93EC01162F62E00E948A0634
:10109000E12FF0E0EC58FF4FE49141E050E001C057
:1010A000440FEA95EAF74095482362E0CE01DF91CC
:1010B000CF911F910C94E106CF93DF93EC010E9436
:1010C000840760E0CE010E948A06482F416060E0FC
:1010D000CE010E94E10640E767E0CE010E94E106F2
:1010E00061E0CE010E947D068F81882349F02C8526
:1010F000AE01495F5F4F6AE0CE010E94AA0604C0BC
:1011000060E0CE010E9440086DE1CE010E948A0697
:1011100081FF05C0CE01DF91CF910C946C07DF9168
:10112000CF910895CF93DF93EC010E94840680E570
:101130000E94620683E70E946206CE01DF91CF9192
:101140000C9487061F93CF93DF93EC01162F66E074
:101150000E948A06887F143020F4612F660F6F5F2B
:1011600001C067E0462F482B66E0CE01DF91CF91AA
:101170001F910C94E106EF92FF920F931F93CF9370
:10118000DF931F92CDB7DEB77C018B0166E00E9432
:101190008A06582F577D0230110531F450620BE951
:1011A00010E020E030E00DC00130110529F005E528
:1011B00010E020E030E005C0586001E410E020E0DD
:1011C00030E0F701058716872787308B452F66E0CB
:1011D000C70159830E94E10666E0C7010E948A06A2
:1011E00091E05981851390E0892F0F90DF91CF9185
:1011F0001F910F91FF90EF9008951F93CF93DF936E
:10120000EC0188819981891719F061E00E94540BE3
:1012100089819881981719F061E00E94540B0E940F
:10122000070560E0CE010E947D0661E0CE010E94CC
:10123000690665E070E080E090E00E94AB0A4CE057
:1012400060E0CE010E94E1064FE564E0CE010E941D
:10125000E10662E070E0CE010E94BB08882311F035
:1012600081E08C8366E0CE010E948A06182F60E040
:1012700070E0CE010E94BB08CE010E94920840E0BF
:101280006DE1CE010E94E10640E06CE1CE010E94DA
:10129000E10640E767E0CE010E94E1066CE4CE0182
:1012A0000E947D07CE010E946907CE010E946C0753
:1012B000CE010E94840760E0CE010E948A06482F7A
:1012C0004E7F60E0CE010E94E106115081E01E3F9A
:1012D00008F080E0DF91CF911F9108950F931F9345
:1012E000CF93DF93EC01662359F00E947C0A698357
:1012F0007A838B839C83DF91CF911F910F91089507
:101300000E947C0A09811A812B813C81601B710B30
:10131000820B930B643671058105910530F763E00C
:1013200070E080E090E00E94AB0AEACF60E00C94AD
:101330006E09FC0113AA14AA15AA16AA1182128218
:1013400013821482411551056105710521F0CB010D
:10135000BA010C94AB0A0895FB01BA01A901DC01A2
:10136000D296FC93EE93D19726E0CF010C94A60C75
:101370001F93CF93DF93EC01162F6EE571E089A9DF
:101380009AA90E94FB0D4AE050E0612F89A99AA911
:101390000E94C60E65E671E089A99AA90E94FB0D1C
:1013A00062E370E080E090E0DF91CF911F910C94B8
:1013B000AB0A1F93CF93DF93EC01162F8D81882307
:1013C00089F189A99AA9DC01ED91FC910480F5814C
:1013D000E02D0995892BA9F307C02637310519F1AE
:1013E0002835310509F41D8289A99AA9DC01ED91FE
:1013F000FC910480F581E02D09951816190694F4E6
:1014000089A99AA9DC01ED91FC910680F781E02D74
:1014100009959C01332723363105F9F6612FCE015A
:101420000E94B80983E6DF91CF911F9108950F9331
:101430001F93CF93DF931F92CDB7DEB78C01662346
:1014400049F081E0F801858360E0C80149830E948A
:10145000D9094981F80145830F90DF91CF911F9100
:101460000F9108951F920F920FB60F9211242F9390
:101470003F938F939F93AF93BF938091ED02909191
:10148000EE02A091EF02B091F0023091EC0223E065
:10149000230F2D3720F40196A11DB11D05C026E8AC
:1014A000230F0296A11DB11D2093EC028093ED0243
:1014B0009093EE02A093EF02B093F0028091F102BC
:1014C0009091F202A091F302B091F4020196A11D55
:1014D000B11D8093F1029093F202A093F302B093B6
:1014E000F402BF91AF919F918F913F912F910F90F7
:1014F0000FBE0F901F9018952FB7F8946091ED02D2
:101500007091EE028091EF029091F0022FBF08954A
:101510003FB7F8948091F1029091F202A091F3020A
:10152000B091F40226B5A89B05C02F3F19F0019693
:10153000A11DB11D3FBF6627782F892F9A2F620FFB
:10154000711D811D911D42E0660F771F881F991F35
:101550004A95D1F708958F929F92AF92BF92CF9202
:10156000DF92EF92FF926B017C010E94880A4B018F
:101570005C01C114D104E104F104F1F00E94CD0E2C
:101580000E94880A681979098A099B09683E734094
:101590008105910570F321E0C21AD108E108F10834
:1015A00088EE880E83E0981EA11CB11CC114D104E2
:1015B000E104F10429F7DDCFFF90EF90DF90CF90A9
:1015C000BF90AF909F908F9008958230910538F032
:1015D000880F991F880F991F05970197F1F70895B4
:1015E000789484B5826084BD84B5816084BD85B5FE
:1015F000826085BD85B5816085BDEEE6F0E08081C5
:1016000081608083E1E8F0E01082808182608083E5
:10161000808181608083E0E8F0E080818160808368
:10162000E1EBF0E0808184608083E0EBF0E080819A
:1016300081608083EAE7F0E080818460808380813C
:1016400082608083808181608083808180688083E4
:101650001092C1000895833081F028F4813099F010
:101660008230A1F008958730A9F08830B9F0843035
:10167000D1F4809180008F7D03C0809180008F77AE
:1016800080938000089584B58F7702C084B58F7DE4
:1016900084BD08958091B0008F7703C08091B00021
:1016A0008F7D8093B0000895CF93DF9390E0FC018D
:1016B000E257FF4F2491FC01EE55FF4F84918823A0
:1016C00049F190E0880F991FFC01E054FF4FA5916C
:1016D000B4918A549F4FFC01C591D4919FB7611179
:1016E00008C0F8948C91209582238C938881822362
:1016F0000AC0623051F4F8948C91322F30958323D4
:101700008C938881822B888304C0F8948C91822BDF
:101710008C939FBFDF91CF9108950F931F93CF9329
:10172000DF931F92CDB7DEB7282F30E0F901E658DE
:10173000FF4F8491F901E257FF4F1491F901EE55E3
:10174000FF4F04910023C9F0882321F069830E9490
:101750002B0B6981E02FF0E0EE0FFF1FEA54FF4FE3
:10176000A591B4919FB7F8948C91611103C0109525
:10177000812301C0812B8C939FBF0F90DF91CF916C
:101780001F910F910895FC01818D228D90E0805C66
:101790009F4F821B91098F7399270895FC01918DAA
:1017A000828D981731F0828DE80FF11D858D90E0C4
:1017B00008958FEF9FEF0895FC01918D828D98170A
:1017C00061F0828DDF01A80FB11D5D968C91928D25
:1017D0009F5F9F73928F90E008958FEF9FEF089522
:1017E00080E69DE0892B49F080E090E0892B29F08C
:1017F0000E94600D81110C9400000895FC01848DFD
:10180000DF01A80FB11DA35ABF4F2C91848D90E02A
:1018100001968F739927848FA689B7892C93A08905
:10182000B1898C9180648C93938D848D981306C0BC
:101830000288F389E02D80818F7D80830895CF9386
:10184000DF93EC01888D8823C9F0EA89FB898081C8
:1018500085FD05C0A889B9898C9186FD0FC00FB69A
:1018600007FCF5CF808185FFF2CFA889B9898C91DB
:1018700085FFEDCFCE010E94FE0BE7CFDF91CF9128
:101880000895CF92DF92FF920F931F93CF93DF9330
:101890001F92CDB7DEB76C0181E0D60158968C93CC
:1018A00058975B969C915B975C968C915C9798138C
:1018B00007C05096ED91FC915197808185FD2EC017
:1018C000F601038D10E00F5F1F4F0F731127F02EED
:1018D000F601848DF81211C00FB607FCF9CFD601BE
:1018E0005096ED91FC915197808185FFF1CFC60113
:1018F00069830E94FE0B6981EBCF838DE80FF11D98
:10190000E35AFF4F6083D6015B960C935B97529628
:10191000ED91FC915397808180620CC0D601569660
:10192000ED91FC91579760835096ED91FC91519702
:1019300080818064808381E090E00F90DF91CF917F
:101940001F910F91FF90DF90CF900895BF92CF929B
:10195000DF92EF92FF92CF93DF93EC016A017B015C
:10196000B22EE889F98982E08083411581EE58071B
:1019700061057105A1F060E079E08DE390E0A701D9
:1019800096010E94CE0E2150310941095109569508
:10199000479537952795211580E1380798F0E88914
:1019A000F989108260E874E88EE190E0A701960161
:1019B0000E94CE0E21503109410951095695479593
:1019C00037952795EC85FD853083EE85FF8520834F
:1019D000188EEC89FD89B082EA89FB89808180615B
:1019E0008083EA89FB89808188608083EA89FB891A
:1019F000808180688083EA89FB8980818F7D8083F4
:101A0000DF91CF91FF90EF90DF90CF90BF9008953E
:101A10001F920F920FB60F9211242F938F939F93C3
:101A2000EF93FF93E0910503F09106038081E0912D
:101A30000B03F0910C0382FD12C0908180910E0384
:101A40008F5F8F7320910F03821751F0E0910E0387
:101A5000F0E0EB50FD4F958F80930E0301C0808125
:101A6000FF91EF919F918F912F910F900FBE0F904B
:101A70001F9018951F920F920FB60F9211242F935B
:101A80003F934F935F936F937F938F939F93AF9306
:101A9000BF93EF93FF9385EF92E00E94FE0BFF91BF
:101AA000EF91BF91AF919F918F917F916F915F91D6
:101AB0004F913F912F910F900FBE0F901F9018954F
:101AC00085EF92E00E94C30B21E0892B09F420E00E
:101AD000822F08951092F8021092F70288EE93E098
:101AE000A0E0B0E08093F9029093FA02A093FB0289
:101AF000B093FC028AEB91E09093F6028093F5029A
:101B000085EC90E0909302038093010384EC90E0D5
:101B1000909304038093030380EC90E0909306037A
:101B20008093050381EC90E0909308038093070372
:101B300082EC90E090930A038093090386EC90E096
:101B400090930C0380930B0310920E0310920F03DB
:101B50001092100310921103089508950E94F00A44
:101B60000E94AD0D0E949200C0EFDBE00E94F701E1
:101B70002097E1F30E94F00BF9CFCF92DF92EF9222
:101B8000FF920F931F93CF93DF937C016A01EB01C8
:101B900000E010E00C151D0571F06991D701ED9181
:101BA000FC910190F081E02DC7010995892B19F076
:101BB0000F5F1F4FEFCFC801DF91CF911F910F91A2
:101BC000FF90EF90DF90CF9008956115710581F03F
:101BD000DB010D900020E9F7AD0141505109461B92
:101BE000570BDC01ED91FC910280F381E02D09940B
:101BF00080E090E008950C94E50DDC01ED91FC91FE
:101C00000190F081E02D09946BE671E00C94E50DF4
:101C10008F929F92AF92BF92DF92EF92FF920F93BB
:101C20001F93CF93DF93CDB7DEB7A1970FB6F8948C
:101C3000DEBF0FBECDBF7C01F42FD52ECB0119A284
:101C4000223008F42AE08E010F5D1F4F822E912C66
:101C5000A12CB12C6F2F7D2DA50194010E94CE0ED9
:101C6000F22FD32ECA01015011096A3014F4E0E3B7
:101C700001C0E7E3E60FD801EC93232B242B252B9F
:101C800049F7B801C7010E94E50DA1960FB6F89477
:101C9000DEBF0FBECDBFDF91CF911F910F91FF909F
:101CA000EF90DF90BF90AF909F908F900895CF926C
:101CB000DF92EF92FF920F931F93CF93DF93EC018C
:101CC0006A017B012115310579F4E881F9810190E0
:101CD000F081E02D642FDF91CF911F910F91FF9044
:101CE000EF90DF90CF9009942A303105E9F477FF27
:101CF0001AC06DE20E94FD0D8C0144275527BA01E0
:101D00004C195D096E097F092AE0CE010E94080E78
:101D1000800F911FDF91CF911F910F91FF90EF9056
:101D2000DF90CF9008952AE0B701A601CE01DF91A0
:101D3000CF911F910F91FF90EF90DF90CF900C9477
:101D4000080E0F931F93CF93DF93EC019A01AB0121
:101D5000662757FD6095762F0E94570E8C01CE01A5
:101D60000E94040E800F911FDF91CF911F910F9160
:101D700008952115310541F4DC01ED91FC910190AC
:101D8000F081E02D642F09940C94080E9A01462FDF
:101D900050E060E070E00C94B90E0895A1E21A2EB4
:101DA000AA1BBB1BFD010DC0AA1FBB1FEE1FFF1FFF
:101DB000A217B307E407F50720F0A21BB30BE40B4F
:101DC000F50B661F771F881F991F1A9469F7609596
:101DD0007095809590959B01AC01BD01CF01089550
:101DE000EE0FFF1F0590F491E02D0994FB01DC013B
:101DF00002C001900D9241505040D8F70895F894D8
:021E0000FFCF12
:101E020022002300240025001E001F0020002100C4
:101E120008000C0004000600020003000100090093
:101E220088130000400014005400564D4450565F81
:101E3200317C315F564D4450560D0A00666F727701
:101E4200006261636B0000000000CF02A202770211
:101E52007F029202A10200000000B005BD0D564DA6
:101E62004450435F005F564D4450430D0A00457293
:101E7200726F723A20417474656D707420746F20B1
:101E8200736574206120726561642D6F6E6C7920B8
:101E92007661726961626C65206F7220646174613F
:101EA2002074797065206E6F7420737570706F7214
:101EB2007465640D0A0000000000410CBD0DC30BE7
:101EC200DC0BCE0B1F0C6E616E00696E66006F76C6
:041ED20066002E0078
:00000001FF
