:1000000011C1000040C100003EC100003CC1000021
:100010003AC1000038C1000036C1000034C1000000
:1000200032C1000030C100002EC100002CC1000010
:100030002AC1000028C1000026C1000024C1000020
:1000400022C1000020C100001EC100001CC1000030
:100050001AC1000018C1000016C100006EC50000E2
:1000600012C100000C94DE080C9414090CC10000AD
:100070000AC1000008C1000006C1000004C1000060
:1000800002C1000000C10000FEC00000FCC0000072
:10009000FAC00000F8C00000F6C00000F4C0000084
:1000A000F2C00000F0C00000EEC00000ECC0000094
:1000B000EAC00000E8C00000E6C00000E4C00000A4
:1000C000E2C00000E0C00000DEC00000DCC00000B4
:1000D000DAC00000D8C00000D6C00000D4C00000C4
:1000E000D2C00000C606C906B806BC06C206000794
:1000F000CD06D106D706DB06DF06E506E906ED06E6
:100100000007F306F706FB061112131415160A0B67
:100110000C0D0E0F00010203040500000A0B02097A
:100120000C0D0E0807030401000000000000000091
:1001300000000000000000000000000000000000BF
:10014000000000000000121110000000000000007C
:10015000000000000000000000000000000000009F
:1001600001021020200808102040102040800201C9
:1001700002010804020101020408102040808040AE
:1001800020100804020180040201804020100804AD
:10019000020108040201010204081020408001024B
:1001A0000408102040800505050507050808080813
:1001B000020202020A0A08080404040401010101FF
:1001C00001010101030303030303030304070707FA
:1001D0000C0C0C0C0C0C0C0C02020202060606069F
:1001E000060606060B0B0B0B0B0B0B0B000022007D
:1001F000250028002B002E003100340002010000F1
:10020000050108010B0100002100240027002A003D
:100210002D003000330001010000040107010A0134
:10022000AD02460911241FBECFEFD1E2DEBFCDBF24
:1002300000E00CBF12E0A0E0B2E0EAEEF3E100E083
:100240000BBF02C007900D92A233B107D9F722E08D
:10025000A2E3B2E001C01D92AF3EB207E1F712E0A7
:10026000C4E2D2E000E006C022970109FE010BBF04
:100270000E94E609C032D10780E00807A9F70E9472
:100280008A090C94F309BCCEEF92FF920F931F934F
:10029000CF93CEE161E08C2FB4D5CF5FC632D1F7DA
:1002A00026E040E855E260E070E082E592E026D783
:1002B00086E392E0E6D362E070E080E090E0AAD4CA
:1002C00069E086E392E080D260E070E086E392E04D
:1002D00099D362E086E392E07ED384EFE82E93EF39
:1002E000F92E02EF11EF20EF30E040E050E061E046
:1002F00086E392E0B1D286E392E0CF911F910F9115
:10030000FF90EF902FC3CF92DF92EF92FF920F9367
:100310001F93CF93DF9328E0C22E22E0D22E30E04D
:10032000E32E32E0F32EC0E0D0E08C01000F111F6D
:10033000005F1D4FF6018081F2E0CF0ED11CF80165
:10034000608171810C2E02C0759567950A94E2F761
:10035000617090D5F7018081F2E0EF0EF11CF80199
:10036000608171810C2E02C0759567950A94E2F741
:10037000617080D52196C430D105E1F6DF91CF912F
:100380001F910F91FF90EF90DF90CF900895AF9263
:10039000BF92CF92DF92EF92FF920F931F93CF9372
:1003A000DF936B018A01E12CF12C5C01AA0CBB1CD0
:1003B0009501205F3D4F5901C7E0D0E0C81BD90B24
:1003C000CC0FDD1FC05FDD4FF6018081F2E0CF0E64
:1003D000D11CF501608171810E2C02C07595679565
:1003E0000A94E2F7617046D5F80180810E5F1F4FD5
:1003F000688179810E2C02C0759567950A94E2F7A1
:10040000617038D5FFEFEF1AFF0A24E0E216F1041D
:10041000D9F6DF91CF911F910F91FF90EF90DF9070
:10042000CF90BF90AF900895EF92FF920F931F93DC
:10043000CF93DF938B01C0E0D0E07C01EE0CFF1C7A
:10044000C701805F9D4F7C01F80180810E5F1F4FC7
:10045000F701608171810C2E02C0759567950A9431
:10046000E2F7617007D52196C430D10569F7DF91B5
:10047000CF911F910F91FF90EF900895CF92DF924F
:10048000EF92FF920F931F93CF93DF9386E392E057
:10049000D6D18823D9F344E062E372E086E392E0A8
:1004A000D1D1E0903202F0903302009134021091E9
:1004B00035020E151F0521F40115110509F444C07C
:1004C000C7E0D0E0E7E0CE2ED12CC6018C1B9D0BFF
:1004D000E114F10421F00115110529F016C00115F0
:1004E000110559F407C021E0E216F10419F468E09F
:1004F00072E009C068E072E005C060E072E00130BF
:10050000110509F0CE0190DF17C00E151F0531F45B
:100510000130110509F0CE01F6DE0EC022E0E21630
:10052000F10429F448E052E060E072E004C040E0E9
:1005300052E068E072E02BDF80912002909121026E
:10054000A0D3219708F0C1CFDF91CF911F910F91D8
:10055000FF90EF90DF90CF90089545E369E086E348
:1005600092E027C1CF93CFB7F894809148028111D0
:1005700023C0EBEDF1E08491E5E9F1E09491E82FFF
:10058000F0E0EE0FFF1FEA5FFD4FA591B4918C9153
:10059000892319F461E085E36DD461E085E331D40A
:1005A0008CB580618CBD8CB580648CBD61E084E3CA
:1005B00028D461E083E325D4809148028F5F809343
:1005C0004802CFBFCF9108958EBD00000DB407FE45
:1005D000FDCF8EB508952CB52F7D2CBD2CB5237F76
:1005E0002CBD2CB52C7F2CBD2DB521602DBDFC0163
:1005F000818140D485E090E044C3FC0180819181F9
:10060000891338C4089560E0E6CF61E0E4CFEF924B
:10061000FF921F93CF93DF931F92CDB7DEB77C017C
:100620006983F1DF6981862F8F71CEDF8FEFCCDF99
:10063000182FC701EADF812F0F90DF91CF911F9113
:10064000FF90EF900895CF92DF92EF92FF920F9379
:100650001F93CF93DF9300D0CDB7DEB78C01F22E7E
:100660004A835B836983CFDF6981862F8F718062C4
:10067000ABDFE82E4A81C42E5B81D52EF40EFC142C
:1006800029F0F60181916F019FDFF9CFC801BDDF2D
:100690008E2D0F900F900F90DF91CF911F910F91A2
:1006A000FF90EF90DF90CF900895EF92FF921F930D
:1006B000CF93DF931F921F92CDB7DEB77C014A83A1
:1006C0006983A1DF6981862F8F7180627DDF182F9A
:1006D0004A81842F79DFC70198DF812F0F900F9017
:1006E000DF91CF911F91FF90EF900895AF92BF924D
:1006F000DF92EF92FF920F931F93CF93DF931F929E
:100700001F92CDB7DEB78C01FC01E580F42EE41614
:1007100008F4FE2CF8018681811102C0EF1801C097
:10072000E12CC80169837A836EDF81E64DDFD82E24
:100730006981A62E7A81B72EF60EFA1431F08FEF6A
:1007400043DFF50181935F01F8CFEE2021F08FEFB9
:100750003BDFEA94FACFC80158DF8D2D0F900F9040
:10076000DF91CF911F910F91FF90EF90DF90BF909D
:10077000AF900895EF92FF921F93CF93DF931F9254
:10078000CDB7DEB77C0169833EDF6981862F1CDF30
:10079000182FC7013ADF812F0F90DF91CF911F9162
:1007A000FF90EF90089562EEE5CF61EEE3CF6FEF3B
:1007B000E1CFFC0160834183148280E2858316824D
:1007C00085E0848717820895462F6E3708F04DE73D
:1007D00065E06BCFCF93DF93EC0160E018DF81FD24
:1007E0000FC060E0CE0113DF482F426060E0CE0111
:1007F0005CDF65E070E080E090E0DF91CF910AC2BD
:10080000DF91CF9108950F931F93CF93DF938C01C6
:10081000EB0167E1FCDE80FD0AC0209751F0C801C2
:10082000C6DF90E0959587958770888302C080E049
:1008300001C081E0DF91CF911F910F91089560E099
:1008400070E0E1CFCF93DF93EC0150DF40E767E04A
:10085000CE01DF91CF9129CFBF92CF92DF92EF925D
:10086000FF920F931F93CF93DF93CDB7DEB72897F7
:100870000FB6F894DEBF0FBECDBF6C01B62EE98275
:10088000FA820B831C832D833E834F83588761112B
:1008900009C0FC01448550E0BE016F5F7F4F0796A1
:1008A00099D507C0F6E0F61708F432C081E0681366
:1008B00008C0EB2DF0E0E25FFE4F6491F601248565
:1008C00006C0E62FF0E0E25FFE4F649121E0AE014A
:1008D0004F5F5F4FC601B7DE0B2D10E0F801E85FF8
:1008E000FE4F6491F6014581C601DFDE62E0C6017C
:1008F0008EDEF801EC5EFE4F049121E030E001C095
:10090000220F0A95EAF7822B482F62E0C601CDDE5E
:1009100028960FB6F894DEBF0FBECDBFDF91CF9102
:100920001F910F91FF90EF90DF90CF90BF900895AF
:100930001F93CF93DF93EC01162F62E068DEE12F67
:10094000F0E0EC5EFE4FE49141E050E001C0440F66
:10095000EA95EAF74095482362E0CE01DF91CF9116
:100960001F91A3CECF93DF93EC0134DF60E0CE0183
:100970004EDE482F416060E0CE0197DE40E767E041
:10098000CE0193DE61E0CE0138DE8F81882341F015
:100990002C85AE01495F5F4F6AE0CE0154DE03C093
:1009A00060E0CE01C5DF6DE1CE0131DE81FF04C024
:1009B000CE01DF91CF91F9CEDF91CF910895CF9302
:1009C000DF93EC0120DE80E5FFDD83E7FDDDCE0176
:1009D000DF91CF911ACE1F93CF93DF93EC01162FA7
:1009E00066E015DE887F143020F4612F660F6F5F9C
:1009F00001C067E0462F482B66E0CE01DF91CF9122
:100A00001F9153CEEF92FF920F931F93CF93DF93DB
:100A10001F92CDB7DEB77C018B0166E0F8DD582F61
:100A2000577D0230110531F450620BE910E020E0EF
:100A300030E00DC00130110529F005E510E020E09F
:100A400030E005C0586001E410E020E030E0F7013C
:100A5000058716872787308B452F66E0C7015983A6
:100A600024DE66E0C701D3DD91E05981851390E073
:100A7000892F0F90DF91CF911F910F91FF90EF90F1
:100A800008951F93CF93DF93EC0188819981891793
:100A900011F061E0B6D189819881981711F061E079
:100AA000B0D160DD60E0CE01A8DD61E0CE0193DD74
:100AB00065E070E080E090E0ADD04CE060E0CE0119
:100AC000F4DD4FE564E0CE01F0DD62E070E0CE01E0
:100AD00099DF882311F081E08C8366E0CE0197DDF9
:100AE000182F60E070E0CE018DDFCE0168DF40E0BE
:100AF0006DE1CE01DADD40E06CE1CE01D6DD40E70C
:100B000067E0CE01D2DD6CE4CE015EDECE014BDECD
:100B1000CE014BDECE015EDE60E0CE0178DD482FF7
:100B20004E7F60E0CE01C1DD115081E01E3F08F034
:100B300080E0DF91CF911F9108951F920F920FB621
:100B40000F9211242F933F938F939F93AF93BF9353
:100B500080914A0290914B02A0914C02B0914D02BB
:100B60003091490223E0230F2D3720F40196A11D77
:100B7000B11D05C026E8230F0296A11DB11D2093CB
:100B8000490280934A0290934B02A0934C02B09387
:100B90004D0280914E0290914F02A0915002B0916F
:100BA00051020196A11DB11D80934E0290934F02F8
:100BB000A0935002B0935102BF91AF919F918F913A
:100BC0003F912F910F900FBE0F901F9018953FB738
:100BD000F89480914E0290914F02A0915002B091F2
:100BE000510226B5A89B05C02F3F19F00196A11D03
:100BF000B11D3FBF6627782F892F9A2F620F711D75
:100C0000811D911D42E0660F771F881F991F4A952D
:100C1000D1F708958F929F92AF92BF92CF92DF92B9
:100C2000EF92FF926B017C01D2DF4B015C01C1149A
:100C3000D104E104F104E1F0A0D3C9DF6819790916
:100C40008A099B09683E73408105910580F321E084
:100C5000C21AD108E108F10888EE880E83E0981ED8
:100C6000A11CB11CC114D104E104F10431F7DFCFA0
:100C7000FF90EF90DF90CF90BF90AF909F908F90BC
:100C800008958230910538F0880F991F880F991FB9
:100C900005970197F1F70895789484B5826084BD33
:100CA00084B5816084BD85B5826085BD85B5816070
:100CB00085BDEEE6F0E0808181608083E1E8F0E0D0
:100CC0001082808182608083808181608083E0E8FF
:100CD000F0E0808181608083E1EBF0E080818460DE
:100CE0008083E0EBF0E0808181608083E1E9F0E0E7
:100CF000808182608083808181608083E0E9F0E090
:100D0000808181608083E1EAF0E08081826080837D
:100D1000808181608083E0EAF0E08081816080836F
:100D2000E1E2F1E080818260808380818160808364
:100D3000E0E2F1E0808181608083EAE7F0E0808199
:100D400084608083808182608083808181608083F1
:100D50008081806880831092C100089590E0FC013A
:100D60003197E231F10508F04BC0EE58FF4F28C330
:100D7000809180008F7703C0809180008F7D809369
:100D80008000089580918000877FF9CF84B58F77A8
:100D900002C084B58F7D84BD08958091B0008F77A7
:100DA00003C08091B0008F7D8093B0000895809142
:100DB00090008F7707C0809190008F7D03C0809155
:100DC0009000877F8093900008958091A0008F7796
:100DD00007C08091A0008F7D03C08091A000877F15
:100DE0008093A0000895809120018F7707C08091A3
:100DF00020018F7D03C080912001877F8093200197
:100E00000895CF93DF9390E0FC01E05AFE4F2491C8
:100E1000FC01EA55FE4F8491882349F190E0880F48
:100E2000991FFC01EA5FFD4FA591B49184519E4F3B
:100E3000FC01C591D4919FB7611108C0F8948C91C1
:100E4000209582238C93888182230AC0623051F4DA
:100E5000F8948C91322F309583238C938881822B48
:100E6000888304C0F8948C91822B8C939FBFDF9170
:100E7000CF9108950F931F93CF93DF931F92CDB718
:100E8000DEB7282F30E0F901E65EFE4F8491F901CC
:100E9000E05AFE4F1491F901EA55FE4F04910023E8
:100EA000C1F0882319F0698359DF6981E02FF0E0F0
:100EB000EE0FFF1FE451FE4FA591B4919FB7F89438
:100EC0008C91611103C01095812301C0812B8C93FB
:100ED0009FBF0F90DF91CF911F910F910895FC015B
:100EE000818D228D90E0805C9F4F821B91098F73D2
:100EF00099270895FC01918D828D981731F0828D8C
:100F0000E80FF11D858D90E008958FEF9FEF089514
:100F1000FC01918D828D981761F0828DDF01A80F01
:100F2000B11D5D968C91928D9F5F9F73928F90E023
:100F300008958FEF9FEF08958DE399E0892B39F0A5
:100F400080E090E0892B19F098D1811125C080E0D4
:100F500090E0892B41F080E090E0892B21F00E9405
:100F6000000081111CC080E090E0892B41F080E0FE
:100F700090E0892B21F00E940000811113C080E0D5
:100F800090E0892BA1F080E090E0892B81F00E9415
:100F9000000081110AC008950E940000D8CF0E946D
:100FA0000000E1CF0E940000EACF0C9400000895F9
:100FB000FC01848DDF01A80FB11DA35ABF4F2C91F6
:100FC000848D90E001968F739927848FA689B789C5
:100FD0002C93A089B1898C9180648C93938D848D9E
:100FE000981306C00288F389E02D80818F7D80836D
:100FF0000895CF93DF93EC01888D8823C1F0EA89AF
:10100000FB89808185FD05C0A889B9898C9186FD01
:101010000EC00FB607FCF5CF808185FFF2CFA889FF
:10102000B9898C9185FFEDCFCE01C2DFE8CFDF918A
:10103000CF910895CF92DF92FF920F931F93CF939A
:10104000DF931F92CDB7DEB76C0181E0D6015896D1
:101050008C9358975B969C915B975C968C915C9770
:10106000981307C05096ED91FC915197808185FDB2
:101070002DC0F601038D10E00F5F1F4F0F73112776
:10108000F02EF601848DF81210C00FB607FCF9CFD0
:10109000D6015096ED91FC915197808185FFF1CF5B
:1010A000C601698385DF6981ECCF838DE80FF11D6F
:1010B000E35AFF4F6083D6015B960C935B97529681
:1010C000ED91FC915397808180620CC0D6015696B9
:1010D000ED91FC91579760835096ED91FC9151975B
:1010E00080818064808381E090E00F90DF91CF91D8
:1010F0001F910F91FF90DF90CF900895BF92CF92F4
:10110000DF92EF92FF92CF93DF93EC016A017B01B4
:10111000B22EE889F98982E08083411581EE580773
:101120006105710599F060E079E08DE390E0A70139
:10113000960124D12150310941095109569547950D
:1011400037952795211580E1380790F0E889F989CE
:10115000108260E874E88EE190E0A70196010ED15C
:1011600021503109410951095695479537952795E1
:10117000EC85FD853083EE85FF852083188EEC8914
:10118000FD89B082EA89FB89808180618083EA8958
:10119000FB89808188608083EA89FB8980818068FF
:1011A0008083EA89FB8980818F7D8083DF91CF9165
:1011B000FF90EF90DF90CF90BF9008951F920F9215
:1011C0000FB60F9211240BB60F922F938F939F930C
:1011D000EF93FF93E0916202F09163028081E091CE
:1011E0006802F091690282FD12C0908180916B02C9
:1011F0008F5F8F7320916C02821751F0E0916B0228
:10120000F0E0EE5AFD4F958F80936B0201C0808114
:10121000FF91EF919F918F912F910F900BBE0F90A7
:101220000FBE0F901F9018951F920F920FB60F923E
:1012300011240BB60F922F933F934F935F936F93AD
:101240007F938F939F93AF93BF93EF93FF9382E529
:1012500092E0AEDEFF91EF91BF91AF919F918F91A0
:101260007F916F915F914F913F912F910F900BBEA6
:101270000F900FBE0F901F90189582E592E02FDE21
:1012800021E0892B09F420E0822F08951092550265
:101290001092540288EE93E0A0E0B0E080935602F2
:1012A00090935702A0935802B093590286E292E0BD
:1012B000909353028093520285EC90E090935F02EA
:1012C00080935E0284EC90E09093610280936002D0
:1012D00080EC90E0909363028093620281EC90E056
:1012E000909365028093640282EC90E09093670291
:1012F0008093660286EC90E0909369028093680286
:1013000010926B0210926C0210926D0210926E029B
:1013100008950895C1DCFDDF0E944401CCE9D7E0C7
:10132000ADD82097E9F308DEFBCFCF92DF92EF92A2
:10133000FF920F931F93CF93DF937C016A01EB0120
:1013400000E010E00C151D0571F06991D701ED91D9
:10135000FC910190F081E02DC7011995892B19F0BE
:101360000F5F1F4FEFCFC801DF91CF911F910F91FA
:10137000FF90EF90DF90CF9008950895A1E21A2E8C
:10138000AA1BBB1BFD010DC0AA1FBB1FEE1FFF1F29
:10139000A217B307E407F50720F0A21BB30BE40B79
:1013A000F50B661F771F881F991F1A9469F76095C0
:1013B0007095809590959B01AC01BD01CF0108957A
:1013C000EE0FFF1F0590F491E02D19940790F69110
:1013D000E02D1994FB01DC0102C001900D924150F7
:0A13E0005040D8F70895F894FFCFAD
:1013EA0022002300240025001E001F0020002100E7
:1013FA0008000C00040006000200030001000900B6
:10140A008813000000001A0895096F0788077A07F1
:02141A00F907D0
:00000001FF
